:1000000018308A001E2C0000FF00030E8301A1009F
:100010000A08A0008A010408A2007708A300780853
:10002000A4007908A5007A08A6007B08A70083131E
:1000300083128C308400801E1F288C1A38288C3044
:100040008400001C25280C183B2822088400230863
:10005000F7002408F8002508F9002608FA00270808
:10006000FB0020088A00210E8300FF0E7F0E09008E
:100070008A110A12522B8A110A12D02A0A108A10E7
:100080000A1182074D346F3464346F342034533492
:1000900065346E3473346F34723400340A108A104D
:1000A0000A1182074E346F3476346F34203454345E
:1000B00065346D34703447346134703400340A1060
:1000C0008A100A118207543465346D347034473411
:1000D000613470343A3425346634203420340034AA
:1000E0000A108A100A118207413454342B344334E5
:1000F0004D34473453343D3422342B343534353485
:1001000025347334223400340A108A100A1182070D
:1001100046346134743465346334203454344334A5
:1001200043340A340D3400340A108A100A1182074D
:100130004334613473346F3420347134753465342E
:1001400069347234613420346C3469346734613416
:100150007234203470346F34723420346634613435
:1001600076346F347234203465346E3476346934C6
:1001700061347234203473346534743470346F34C1
:1001800069346E34743420346F34753420346334FD
:100190006F346D3461346E3464346F3420346C34B5
:1001A00069346734613472342E340A340D340034C7
:1001B0000A108A100A1182075034653464342E34D0
:1001C0002034543465346D347034473461347034C1
:1001D00000340A108A100A11820750346C346134DA
:1001E0006E347434613420346434653473346C3464
:1001F0006934673461346434613400340A148A1019
:100200000A1182074E346F3476346F3420345434FC
:1002100065346D34703441346C3465347234743404
:10022000613400340A148A100A1182075434653488
:100230006D34703441346C346534723474346134E8
:100240003A342534663400340A148A100A118207BD
:1002500053347434613474347534733420346434F6
:100260006134203450346C3461346E34743461340D
:100270003A3420344434453453344C3449344734CC
:100280004134443441342E340A340D3400340A14D9
:100290008A100A1182075034653464342E342034B5
:1002A000543465346D34703441346C346534723494
:1002B0007434613400340A148A100A1182074534F8
:1002C0006E3476343A3420342534733400340A14CE
:1002D0008A100A118207543465346D3470343A340C
:1002E00020342534663400340A148A100A11820737
:1002F000543465346D34703465347234613474341C
:100300007534723461343A34203425346634003420
:100310000A148A100A11820753346F346C3469341A
:100320006334693474342E342034543465346D3479
:10033000703400340A148A100A11820750346C3465
:1003400061346E347434613420346A34613420345E
:100350006C346934673461346434613400340A14B1
:100360008A100A1182074134633469346F346E3461
:1003700061346D342E3420346C346F346334613422
:100380006C342034203400340A148A100A11820795
:100390004134633469346F346E3461346D342E34D7
:1003A0002034723465346D346F3474346F342034D7
:1003B00000340A148A100A118207533465347434E5
:1003C00070346F3469346E3474343A34253466349E
:1003D00000340A148A100A118207443465347334D5
:1003E0006134633469346F346E342E3420346C34A9
:1003F0006F34633461346C34203400340A108A144E
:100400000A118207443465347334613463346934C7
:100410006F346E342E342034723465346D346F345E
:1004200074346F3400340A108A140A11820750346D
:100430006C3461346E347434613420346A34613421
:1004400020346434653473346C3469346734003474
:100450000A108A140A1182075334743461346E34DA
:1004600064344234793400340A108A140A11820741
:1004700053344D345334203452346534633465344A
:100480006234693464346F3400340A108A140A11F7
:100490008207413454342B3443344D34473452347E
:1004A0003D34253469340A340D3400340A108A147A
:1004B0000A1182072B3443344D344734523400340C
:1004C0000A108A140A11820753344D3453343A34D3
:1004D00020342534733400340A108A140A11820738
:1004E000413454342B3443344D34473444343D3454
:1004F000253469340A340D3400340A108A140A1180
:100500008207413454342B3443344D344734463419
:100510003D3431340A340D3400340A108A140A117F
:10052000820753346534743470346F3469346E34F4
:1005300074343A3420342534663400340A108A1472
:100540000A1182075434433443342034463461342E
:1005500074346534633420343234303431343034DC
:1005600000340A108A140A11820741347534743435
:100570002E34203449346E34643475347334743416
:100580007234693461346C3400340A108A140A11EC
:10059000820741345434453430340A340D34003445
:1005A000FD080319D42AFD030C108A110A1225280C
:1005B00083160317AC080319272B2908FA0028080B
:1005C000840083137A1883170008AD002B08FA0003
:1005D0002A08840083137A18831700082D02031950
:1005E0000C2B2908FA002808840083137A18831733
:1005F0000008AD002B08FA002A08840083137A183B
:10060000831700082D020318082BFF30FA00092B6E
:100610000130F800292B192B2908FA00280884003A
:1006200083137A1883178008031D192B0030F800F4
:10063000292B2908FA002808A80A0319A90A2B0857
:10064000FA002A08AA0A0319AB0AAC03DA2A003016
:10065000F800831203130034831603172908FA00E5
:100660002808840083137A1883172A0800020319C4
:100670004B2B2908FA002808840083137A18831763
:100680008008031D472B0030F800F9004F2BA80A03
:100690000319A90A2E2B2808F8002908F90083124B
:1006A000031300341A08B30033080A3C03196E2BF5
:1006B00033080D3C03196E2BA030340784008313DC
:1006C000330880000130B407D80803196E2B373087
:1006D00047078400831333088000C70A33080A3CA5
:1006E000031D522DB4080319522DA0303407840085
:1006F00083138001D8080319842BB40137304707CE
:10070000840083138001D8013408023C031D9A2B16
:1007100083160317A901A030A800AB014830AA0036
:100720000230AC0083120313D822F808031D9A2B61
:100730000130B6003408083C0318D22C34080F3CB2
:10074000031CD22C83160317A901A030A800AB010B
:100750004B30AA000530AC0083120313D822F808EE
:10076000031DD22C83160317A901A030A8002C303A
:10077000AA00831203132C23790883160317A900F8
:100780007808A80001302807AA002908AB00031840
:10079000AB0A2B08AD002A08AC00B101AF010A304A
:1007A000B000AE012C082D04031DD92B0030F80039
:1007B000CC2C3108B10A2C07840083132D18831721
:1007C0000008B20032082D3C031DF22B0130AF00AF
:1007D0003108B10A2C07840083132D1883170008F1
:1007E000B200FF2B32082B3C031DFF2B3108B10A4E
:1007F0002C07840083132D1883170008B2003208D9
:100800002F3C0318C22C3208393C031CC22C32087E
:10081000303C031D2B2C31082C07840083132D182A
:1008200083170008783C03191F2C31082C0784001B
:1008300083132D1883170008583C031D2B2C1030F0
:10084000B000B10A3108B10A2C07840083132D18B7
:1008500083170008B20030080A3C031D702C3208D0
:100860002F3C03186F2C3208393C031C6F2C0A30C4
:10087000B3002E08B400F701F80133080310341850
:10088000F707F70CF80CB418F707F70CF80C341945
:10089000F707F70CF80CB419F707F70CF80C341A33
:1008A000F707F70CF80CB41AF707F70CF80C341B21
:1008B000F707F70CF80CB41BF707F70CF80C7808DF
:1008C000B300303032023307AE003108B10A2C07D2
:1008D000840083132D1883170008B2002F2CC22C1C
:1008E0003008103C031DC22C3208603C03187F2CDA
:1008F00032087A3C031C7F2C3208DF39802C320806
:10090000B20032082F3C0318892C3208393C0318F6
:10091000912C3208403C0318C22C3208463C031C80
:10092000C22C32082F3C0318A22C3208393C031C7D
:10093000A22C2E0EB300F030B30530303202330754
:10094000AE00AB2C2E0EB300F030B30541303202B6
:100950000A3E3307AE003108B10A2C078400831326
:100960002D1883170008B2003208603C0318BF2C12
:1009700032087A3C031CBF2C3208DF39C02C320805
:10098000B200812C2F0BCA2C30080A3C031DCA2C44
:10099000AE09AE0A2E08F800780883120313D700B8
:1009A0000230B60034082E3C0318512D831603176D
:1009B000A901A030A800AB015130AA000530AC005D
:1009C00083120313D822F808031D512D8316031731
:1009D000A901A030A8002C30AA00831203132C23F5
:1009E000790883160317A9007808A80003302807A0
:1009F000AA002908AB000318AB0A0130AD00103083
:100A0000AC002B08AF002A08AE000A30B0002D0859
:100A1000B2002C08B100B0080319362D2F08FA00D7
:100A20002E08840083137A18831780080319362D43
:100A30003208FA003108B10A0319B20AB3007A0881
:100A4000B4002F08FA002E08AE0A0319AF0A84007A
:100A500083137A1883170008B500330884008313C2
:100A60003418831735088000B0030B2DB008031924
:100A7000462D3208FA003108B10A0319B20A84007F
:100A800083137A1883178001B003362D2C08F800E1
:100A90002D08F900033083120313B600C70101309B
:100AA000D800B4018C128A110A12252891308400D2
:100AB000831700080319692D0230F800F701F70BBE
:100AC0005F2DF80B5E2D9730F700F70B652D800B2F
:100AD0005C2D003409118914031762080313880080
:100AE00003308316031791008312031356258910D0
:100AF00000343C300317E20003136A250C3003175F
:100B0000E20003136A258A150A162A2D01300317FD
:100B1000E20003136A2500340915891483160317AC
:100B20001008831203138800033083160317910003
:100B3000831203135625891000340317E101A030F6
:100B4000E0006108E3006008E2006308FA00620860
:100B5000840083137A18831780080319B32DE20ADF
:100B60000319E30AA52D60086202F7006308FA0082
:100B70006108031C610FFA027708F8007A08F9008F
:100B800078080313B000AF0130082F020318E22DDC
:100B9000A0302F07840083138001A0302F0784002A
:100BA000831300080317E00003130C1ED52D9900D2
:100BB0006430831603179100831203135625013006
:100BC000AF07C42DAF018A150A16A82D03176808B0
:100BD000F80167020318EF2D6708F700FB2DF701F6
:100BE0000830E900E70DF70D680877020318F700F1
:100BF000F80DE90BF22D0313003420300317621EA9
:100C00003030E3006108F700E11F0D2EF709F70A05
:100C10007708E1002D30E300E2176108E700643057
:100C2000E8000313E62577080317E1003030780762
:100C3000E4006108E7000A30E8000313E6253030DD
:100C400077070317E60030307807E5006308F70000
:100C5000E21D2C2EE21F6211621A392EE21F542E61
:100C60006219542E7708E400E218542E7708E50044
:100C7000542E30306402031D542E7708E4002030D7
:100C8000E300E21D472E6211E214E21FE210303051
:100C90006502031D542E7708E5002030E400E21DB4
:100CA000472EE210E21F6210621D5C2E63080313E0
:100CB0000C1E582E99000317E21C642E64080313BF
:100CC0000C1E602E99000317621C6C2E650803131E
:100CD0000C1E682E99000317660803130C1E6E2E57
:100CE0009900003403176108FA0060088400831338
:100CF0007A1883170008E4006308FA006208840089
:100D000083137A18831700086402031D9E2E61085E
:100D1000FA006008840083137A1883178008031D83
:100D2000942E0030F800B72E6108FA006008E00A3F
:100D30000319E10AE20A0319E30A732E6108FA00B3
:100D4000600884008313611883170008E4006308B7
:100D5000FA00620884008313631883170008640292
:100D60000318B52EFF30FA00B62E0130F800031339
:100D7000003483160317100803192B2F980014084A
:100D800003192B2F98070318CC2E7F309802031CD1
:100D90002B2F03192B2FD02E8130980703182B2FC0
:100DA0001808F700F801F901FA0111089C009C17D6
:100DB00012089B0013089A001830980099011A1C19
:100DC000F92E1708FA07031CEB2EF90A031DEB2E68
:100DD000F80A031999171608F907031CF22EF80AE6
:100DE000031999171508920092171208F8070318AB
:100DF0009917990DF80CF90CFA0C9C0C9B0C9A0C99
:100E00000310980BDE2E0130F70703182B2FF81B69
:100E1000102F9C0DFA0DF90DF80DF70303192B2F68
:100E20009C1F212FFA0A031D212FF90A031D212FD0
:100E3000F80A031D212FF80CF90CFA0CF70A031914
:100E40002B2F1108990015089906991F292FF817BB
:100E50002F2FF8132F2FF701F801F901FA01831250
:100E6000031300348E30F700831603171508F800BB
:100E70001408F900FA01F808031D482F7908F80052
:100E8000F9010830F702F808031D482FF701502F29
:100E90000310F81B4F2FF90DF80DF703482FF81327
:100EA000831203130034031769080313E1000317C7
:100EB00068080313E000031767080313DF00031734
:100EC00066080313DE00003403176508EC006908A8
:100ED000EC06EC1F702F03110310E51B0314A32F66
:100EE0006508EC006808ED006408ED0203197E2F28
:100EF000EC1FA32F0308013A8300A32F6908ED001C
:100F00006508ED0203198A2FEC1FA32F0308013A8D
:100F10008300A32F6A08ED006608ED020319962FDF
:100F2000EC1FA32F0308013A8300A32F6B08ED00E9
:100F30006708ED020319A22FEC1FA32F0308013A43
:100F40008300A32F03100313003483160317100824
:100F5000B63C9000FA011108940091170310910C0F
:100F6000920C930CFA0CF90CF80CF70C900BAE2FBA
:100F7000941FC52FF709F809F909FA09F70A0319A7
:100F8000F80A0319F90A0319FA0A83120313003441
:101000008030831C0828831603179D068312031360
:1010100083160317A201A3011908A1001D08A10648
:1010200018080319F728A000F7001C080319002965
:10103000A00203199C28031C5A281D08A600A61705
:101040001E08A5001F08A400A3010310A60CA50CF0
:10105000A40CA30CA00B2428A11F312822141429AE
:101060002210201022169B30840083172929221277
:10107000A11B4428201C4F28A60CA50CA40CA30CD3
:10108000F70A03190F294F28A61B52280310A30D96
:10109000A40DA50DA60DF70303190F294428221747
:1010A000BC2822131908A100A11F5828A617082937
:1010B000A61308291C08A000F7001808A0021908A8
:1010C000A600A6171A08A5001B08A400A301031078
:1010D000A60CA50CA40CA30CA00B6628A11F7328BA
:1010E000A2141429A2102010A2169F308400831786
:1010F0002929A212A11B8628201C9128A60CA50C28
:10110000A40CA30CF70A03190F299128A61B9428F5
:101110000310A30DA40DA50DA60DF70303190F29A8
:101120008628A217BC28A2131D08A100A11F9A2877
:10113000A6170829A61308291D08A600A6171E0829
:10114000A5001F08A400A11FA928A6132215142971
:101150002211A30120109B30840083172929A11B91
:10116000D2281908A100201CBC28A60CA50CA40C90
:10117000A30CF70A03190F29A31FCD28A40A031DE6
:10118000CD28A50A031DCD28A60A031DCD28A60C2F
:10119000A50CA40CF70A03190F29221B5128A21B26
:1011A0009328F1288030A606A61FDA2814291D08E6
:1011B000A100E7281908A100A608031DE728A50833
:1011C000031DE728A408031DE728F7010829A61B2B
:1011D000F1280310A30DA40DA50DA60DF70BE7280C
:1011E0000F29A11FF528A6170829A61308291C08EE
:1011F000F7001D08A6001E08A5001F08A400082966
:101200001808F7001908A6001A08A5001B08A40072
:101210002608F8002508F9002408FA004729F701F4
:10122000F801F901FA014729A301A409A509A609B2
:10123000A309A30A031D2229A40A031D2229A50A22
:101240000319A60A22183028A21872282219A828E1
:10125000D7280008A407031C3329A50A031D332936
:10126000A60A0319201484030008A507031C3B29C0
:10127000A60A0319201484030008801F803AA607D9
:1012800003182014221A3728A21A7928AF288312AB
:10129000031300348316031711080319112A9D0044
:1012A00015080319112A9D02031C5B297F309D0735
:1012B0000318112A612981309D02031C112A031988
:1012C000112A1D08F700F801F901FA019C01120822
:1012D0009B009B1713089A001408990019309D0071
:1012E000180899020318842901309A0203188429E6
:1012F0009B02031884299C02031884299C0A9B0AD8
:101300009A0A18089907B62917089A0203189F29FC
:1013100001309B0203189F299C0203189F299C0AF5
:101320009B0A17089A0718089907031CB6299A0AF6
:10133000031DB6299B0A031DB6299C0AB629160867
:1013400080389B020318B52901309C020318B52987
:101350009C0A160880389B0717089A07031C9329D4
:101360009B0A031D93299C0A93297A149D0BB92982
:10137000C4290310990D9A0D9B0D9C0D0310FA0DB5
:10138000F90DF80D9E0D70291E1CCC290310F80CC8
:10139000F90CFA0C9E0CCF29F7030319112A9E1B96
:1013A000F8290310990D9A0D9B0D9C0D18089902B0
:1013B0000318E42901309A020318E4299B02031858
:1013C000E4299C02031C072A17089A020318EF2934
:1013D00001309B020318EF299C02031C072A160800
:1013E00080389B020318F82901309C02031C072A4D
:1013F000FA0A031D072AF90A031D072AF80A031D22
:10140000072AF70A0319112AF80CF90CFA0C12082A
:101410009D0016089D069D1F0F2AF817152AF81320
:10142000152AF701F801F901FA01831203130034B8
:101430007F300317E400E501E601E701E801E90177
:10144000EA01EB01EC01EE016E08EE0A620784008E
:101450008313631883170008ED006D082F3C0318F1
:10146000352A6D08393C0318412A6D082B3C0319B5
:10147000412A6D082D3C0319412A6D082E3C031D9D
:10148000682B6D082D3C031D502A0130EC006E08BE
:10149000EE0A620784008313631883170008ED00C7
:1014A0006D082B3C031D5D2A6E08EE0A620784005E
:1014B0008313631883170008ED006D082F3C031891
:1014C000DA2A6D08393C031CDA2A8316930192014B
:1014D000203091008230900083126B0883169700B1
:1014E00083126A0883169600831269088316950092
:1014F00083126808831694008A1183120313B92695
:101500008A157708831603179000780891007908E8
:1015100092007A089300950183126D088316940057
:101520008A118312031332278A1583108316031737
:1015300013089B0012089A001108990010089800DF
:101540007A089F0079089E0078089D0077089C0023
:10155000831203130020770883160317940078087A
:101560009500790896007A089700831417089B0065
:1015700016089A0015089900140898009F019E010A
:1015800040309D0084309C008312031300207A08B1
:101590000317EB007908EA007808E9007708E8000B
:1015A0006E08EE0A6207840083136318831700082D
:1015B000ED005D2A6D082E3C031D682B6E08EE0AB7
:1015C000620784008313631883170008ED006D0819
:1015D0002F3C0318682B6D08393C031C682B6708E7
:1015E000831693008312660883169200831265089F
:1015F0008316910083126408831690009701960168
:1016000020309500823094008A1183120313B9268A
:101610008A157A080317E7007908E6007808E500DC
:101620007708E40030306D028316950194008A112A
:101630008312031332278A157A088316031794003E
:101640007908930078089200770891008312670860
:101650008316980083126608831697008312650824
:101660008316960083126408831695008312031371
:101670004A21831003176B0883169B0083126A08A4
:1016800083169A00831269088316990083126808EA
:10169000831698007A089F0079089E0078089D00BC
:1016A00077089C008312031300207A080317EB00CD
:1016B0007908EA007808E9007708E8006E08EE0A81
:1016C000620784008313631883170008ED00E72A7C
:1016D0006C0B8F2B831693019201803091007F3029
:1016E000900083126B088316970083126A08831692
:1016F0009600831269088316950083126808831682
:1017000094008A1183120313B9268A157A080317E5
:10171000EB007908EA007808E9007708E800680833
:10172000F7006908F8006A08F9006B08FA0003136B
:101730000034F701F801F901FA0183160317980143
:1017400099019A019B011708160415041404031942
:10175000D92B20309C000310900D910D920D930D0C
:10176000980D990D9A0D9B0D17081B02031DC22B96
:1017700016081A02031DC22B15081902031DC22BDD
:1017800014081802031CD32B140898021508031C14
:10179000150F99021608031C160F9A021708031C4E
:1017A000170F9B020314F70DF80DF90DFA0D9C0BA2
:1017B000AB2B983084008317831203130034040882
:1017C0000317E8006708EA0003190B2C6608831664
:1017D00093008312650883169200831264088316AF
:1017E00091008312630883169000970196012030C0
:1017F0009500823094008A1183120313B9268A154A
:101800007A080317E6007908E5007808E40077080D
:10181000E300EA0BE62B6608831693008312650843
:101820008316920083126408831691008312630862
:10183000831690008A1183120313A5278A157A084C
:101840000317E6007908E5007808E4007708E3006C
:10185000E61F372CE803E816E309E409E509E60981
:10186000E30A0319E40A0319E50A0319E60A3B30FF
:10187000EF009A30EE00CA30ED00EC010A30EA00C9
:1018800067080319E80A660883169300831265083F
:1018900083169200831264088316910083126308F2
:1018A0008316900083126F088316970083126E08C8
:1018B0008316960083126D088316950083126C08B8
:1018C0008316940083120313992300080317E3007F
:1018D000840A0008E400840A0008E500840A00087D
:1018E000E600FD308407F708031D892C670A6A02A9
:1018F0000319892C680803198B2C0F396A02031904
:10190000832C0318D32CE81BD32C681B8B2C203082
:10191000C92C2030E805E81E9F2CE8126708031D3B
:10192000E8037708E8002D30831690008A118312AF
:1019300003138C258A1503176808F700E801670868
:101940006A02031DB32C7708E8002E30831690003E
:101950008A11831203138C258A1503176808F70070
:101960002030E80500303030E81EC92CE812670846
:10197000031DE8037708E8002D30831690008A11D4
:10198000831203138C258A1503176808F700E801F2
:101990003030F7077708831690008A1183120313FB
:1019A0008C258A1503176F088316930083126E081F
:1019B0008316920083126D088316910083126C08BF
:1019C000831690009701960195010A3094008312C6
:1019D000031399237A080317EF007908EE007808BB
:1019E000ED007708EC00EA0B432C031300340317D7
:1019F000600B152DE3013F30E20003131822770836
:101A00000317E2007808E3007908E4007A08E500AB
:101A1000E9006408E8006308E7006208E6008A114C
:101A2000031353278A15452D031703136108031762
:101A3000E700031360080317E60003135F080317AA
:101A4000E50003135E080317E400EB01EA01E90176
:101A5000E8018A11031364278A15031D422D6D08BE
:101A60000317E90003136C080317E80003136B085E
:101A70000317E70003136A080317E6008A1103132C
:101A800053278A158A1186258A15D9080319862DA8
:101A90000317610B682D8030E2008A1103136A2559
:101AA0008A150317E20162088A1103139A218A1525
:101AB0000317E20AF700831690008A1183120313BA
:101AC0008C258A15103003176202031D532D842DB7
:101AD0008030E2008A1103136A258A150317E20198
:101AE00062088A1103139A218A150317E20AF70084
:101AF000831690008A11831203138C258A151030E7
:101B000003176202031D702DC52D031387150130C5
:101B1000D9000317610BA92D8030E2008A1103134D
:101B20006A258A150317E20162088A110313AF219F
:101B30008A150317E20AF700831690008A118312B0
:101B400003138C258A15103003176202031D942D90
:101B5000C52D8030E2008A1103136A258A15031708
:101B6000E20162088A110313C4218A150317E20AED
:101B7000F700831690008A11831203138C258A15AF
:101B8000103003176202031DB12DC030E2008A112C
:101B900003136A258A150317E20162088A110313E9
:101BA000D9218A150317E20AF700831690008A11DB
:101BB000831203138C258A15093003176202031D53
:101BC000CD2D89308400031361080317E600031349
:101BD00060080317E50003135F080317E40003130D
:101BE0005E080317E3000230E7000313DF2303302E
:101BF0000317E3002030831690008A118312031329
:101C00008C258A150317E30BFA2D0830FD0003130A
:101C10000034D9080319562E8711071087120613AE
:101C20009501861387148612D9018A1186258A1593
:101C30000317600B382E8030E2008A1103136A25E7
:101C40008A150317E10161088A110313E9218A1536
:101C50000317E10AF700831690008A118312031319
:101C60008C258A15103003176102031D232E542E74
:101C70008030E2008A1103136A258A150317E101F7
:101C800061088A110313FE218A150317E10AF70080
:101C9000831690008A11831203138C258A15103045
:101CA00003176102031D402E922E03130317600BCE
:101CB000762E8030E2008A1103136A258A150317F5
:101CC000E10161088A11031313228A150317E10A3F
:101CD000F700831690008A11831203138C258A154E
:101CE000103003176102031D612E922E8030E20036
:101CF0008A1103136A258A150317E10161088A1105
:101D0000031313228A150317E10AF70083169000C4
:101D10008A11831203138C258A1510300317610270
:101D2000031D7E2EC030E2008A1103136A258A1536
:101D30000317E10161088A11031328228A1503178A
:101D4000E10AF700831690008A11831203138C2591
:101D50008A15073003176102031D9A2E0930E2002D
:101D60002030831690008A11831203138C258A1564
:101D70000317E20BB02E0830FD00031300340408F3
:101D80000317E6006508E8000319EB2E64088316C4
:101D900093008312630883169200831262088316ED
:101DA00091008312610883169000970196012030FC
:101DB0009500823094008A1183120313B9268A1584
:101DC0007A080317E4007908E3007808E20077084E
:101DD000E100E80BC62E64088316930083126308A3
:101DE00083169200831262088316910083126108A1
:101DF000831690008A1183120313A5278A157A0887
:101E00000317E4007908E3007808E2007708E100AE
:101E1000E41F172FE603E616E109E209E309E409E6
:101E2000E10A0319E20A0319E30A0319E40A3B3041
:101E3000ED009A30EC00CA30EB00EA010A30E8000D
:101E400065080319E60A6408831693008312630881
:101E50008316920083126208831691008312610830
:101E60008316900083126D088316970083126C0806
:101E70008316960083126B088316950083126A08F6
:101E80008316940083120313992300080317E100BB
:101E9000840A0008E200840A0008E300840A0008BB
:101EA000E400FD308407F708031D692F650A680206
:101EB0000319692F660803196B2F0F39680203197C
:101EC000632F0318A72FE61BA72F661B6B2F20304D
:101ED000A02F2030E605E61E7C2FE6126508031DC4
:101EE000E6037708E6002D3003130C1E752F9900CA
:101EF00003176608F700E60165086802031D8D2FC9
:101F00007708E6002E3003130C1E842F9900031768
:101F10006608F7002030E60500303030E61EA02FBE
:101F2000E6126508031DE6037708E6002D3003136B
:101F30000C1E982F990003176608F700E601303051
:101F4000F707770803130C1EA32F990003176D08DA
:101F50008316930083126C088316920083126B0819
:101F60008316910083126A088316900097019601E8
:101F700095010A3094008312031399237A080317FA
:101F8000ED007908EC007808EB007708EA00E80B30
:0A1F9000232F03138A110A16592AA1
:102000003608013A03190B28033A03190D28013A3F
:1020100003195528C42DB601C42DB6010A12862510
:102020000A1680300317E2000A1203136A250A1603
:102030000317E00160080A12031334220A1603177B
:10204000E00AF700831690000A12831203138C250E
:102050000A160C3003176002031D1A28E0016008FD
:102060000A12031345220A160317E00AF7000313A6
:102070000C1E38289900083003176002031D2F2812
:10208000031357080317E1001F30E2000A1203137D
:10209000FD250A160A300C1E4B2899000D300C1E27
:1020A0004F2899000430FD00C42DB6010A12862580
:1020B0000A1680300317E2000A1203136A250A1673
:1020C0000317E00160080A12031356220A160317C9
:1020D000E00AF700831690000A12831203138C257E
:1020E0000A16053003176002031D6228C030E200A3
:1020F0000A1203136A250A16D80803198628B2089B
:1021000003198628B2030430FD007C280317E00180
:1021100060080A12031360220A160317E00AF70088
:10212000831690000A12831203138C250A160530B9
:1021300003176002031D88283730840083130030A2
:1021400000040319B928E2010408E1006210831BAE
:1021500062140008831690000A12831203138C2560
:102160000A16031761088400831362188317840A10
:102170009F280630FD0037308400831300300004B0
:102180000319CA28000803130C1EC4289900840AE6
:102190000317BE280A3003130C1ECC2899000D30FB
:1021A0000C1ED02899000317E00160080A120313DF
:1021B0006C220A160317E00AF70003130C1EDE2830
:1021C0009900083003176002031DD5280313570830
:1021D0000317E1001F30E2000A120313FD250A165F
:1021E0000A300C1EF12899000D300C1EF5289900BC
:1021F0000317E00160080A1203137D220A16031771
:10220000E00AF70003130C1E032999000B30031793
:102210006002031DFA28E1013730E0000130E300DD
:102220001B30E2000A12031372260A16F808031D77
:1022300022290317E001E1010A128A150313F7248A
:102240000A168A11A8018B1BA8178B138316031774
:10225000A9013730A8000130AB002430AA000830B3
:10226000AC000A1283120313D8220A16A81B8B177C
:10227000F808031D452901300317E000E1010A12A7
:102280008A150313F7240A168A110317E101373060
:10229000E0000130E3002D30E2000A120313722641
:1022A0000A16F808031D5C290317E0010A128A15B3
:1022B000031309260A168A110317E1013730E000DB
:1022C0000130E3003730E2000A12031372260A16C7
:1022D000F808031D1E2BD90803196A2A0A1286253D
:1022E0000A1680300317E2000A1203136A250A1641
:1022F0000317E00160080A1203135B210A16031793
:10230000E00AF700831690000A12831203138C254B
:102310000A16053003176002031D7A291030840065
:102320008317003000040319AB29E2010408E1001F
:102330006210831B62140008831690000A12831235
:1023400003138C250A16031761088400831362188F
:102350008317840A9129C030E2000A1203136A2508
:102360000A160317E00160080A12031367210A1610
:102370000317E00AF700831690000A128312031372
:102380008C250A16063003176002031DB329893015
:102390008400031369080317E60003136808031792
:1023A000E500031367080317E40003136608031727
:1023B000E3000230E7000A128A150313DF230A162E
:1023C0008A110230FD000A300C1EE42999000D30FC
:1023D0000C1EE82999000317E00160080A12031394
:1023E00070200A160317E00AF70003130C1EF629E3
:1023F00099000C3003176002031DED291030840092
:1024000083170030000403190D2A000803130C1E63
:10241000072A9900840A0317012A223003130C1E8D
:102420000F2A99000A300C1E132A99000D300C1E39
:10243000172A99000130FD000317E00160080A1215
:10244000031384200A160317E00AF70003130C1E77
:10245000272A99000B3003176002031D1E2AE00192
:1024600060080A12031374210A160317E00AF70022
:1024700003130C1E392A99000D3003176002031D47
:10248000302A89308400031369080317E40003131A
:1024900068080317E300031367080317E200031338
:1024A00066080317E1000230E5000A128A150313DB
:1024B000BF2E0A168A110A300C1E5C2A99000D30B4
:1024C0000C1E602A99000130FD0035080C1E662A9A
:1024D00099001C2B0A300C1E6B2A99000D300C1E23
:1024E0006F2A99000317E00160080A120313702095
:1024F0000A160317E00AF70003130C1E7D2A990041
:102500000C3003176002031D742A103084008317F7
:10251000003000040319942A000803130C1E8E2AAD
:102520009900840A0317882A223003130C1E962A66
:1025300099000A300C1E9A2A99000D300C1E9E2A12
:1025400099000317E00160080A12031384200A1699
:102550000317E00AF70003130C1EAC2A99000B3096
:1025600003176002031DA32AE00160080A12031387
:1025700024210A160317E00AF70003130C1EBE2AD3
:1025800099001E3003176002031DB52AE0016008A0
:102590000A12031394200A160317E00AF700031324
:1025A0000C1ED02A99003F3003176002031DC72A72
:1025B000031335080C1EDA2A99000130FD000A12B7
:1025C00086250A1680300317E2000A1203136A25D3
:1025D0000A160317E00160080A12031388210A167D
:1025E0000317E00AF700831690000A128312031300
:1025F0008C250A160D3003176002031DEB2AC0302C
:10260000E2000A1203136A250A160317E0016008A4
:102610000A120313E9200A160317E00AF7008316CB
:1026200090000A12831203138C250A161030031728
:102630006002031D072B03130830FD00A8018B1B4C
:10264000A8178B1383160317A9013730A800013090
:10265000AB004830AA000830AC000A128312031302
:10266000D8220A16A81B8B17F808031D5A2CD90864
:102670000319B12B0317E3013F30E2000A128A1558
:10268000031318220A168A117A08F1007908F0005B
:102690007808EF007708EE000A1286250A168030C7
:1026A0000317E2000A1203136A250A160317E00152
:1026B00060080A1203134E200A160317E00AF700F7
:1026C000831690000A12831203138C250A160C300D
:1026D00003176002031D582BC030E2000A120313D7
:1026E0006A250A160317E00160080A1203135F2027
:1026F0000A160317E00AF700831690000A128312E5
:1027000003138C250A16083003176002031D742B6F
:10271000893084007108E6007008E50003136F0833
:102720000317E40003136E080317E3000230E70009
:102730000A128A150313DF230A168A112030831622
:10274000031790000A12831203138C250A162030F7
:102750008316031790000A12831203138C250A169E
:10276000582C0A300C1EB22B99000D300C1EB62BC3
:1027700099000317E00160080A12031370200A167B
:102780000317E00AF70003130C1EC42B99000C304A
:1027900003176002031DBB2B103084008317003029
:1027A00000040319DB2B000803130C1ED52B990022
:1027B000840A0317CF2B223003130C1EDD2B990044
:1027C0000A300C1EE12B99000D300C1EE52B9900F0
:1027D0000317E00160080A12031384200A16031786
:1027E000E00AF70003130C1EF32B99000B300317BC
:1027F0006002031DEA2BE00160080A120313942013
:102800000A160317E00AF70003130C1E052C9900A3
:102810003F3003176002031DFC2B031335080C1E09
:102820000F2C9900C8308316031791000A128312E7
:10283000031356250A160A1286250A168030031736
:10284000E2000A1203136A250A160317E001600862
:102850000A120313D8200A160317E00AF70083169A
:1028600090000A12831203138C250A160C300317EA
:102870006002031D272CC030E2000A1203136A25F0
:102880000A160317E00160080A120313E9200A166A
:102890000317E00AF700831690000A12831203134D
:1028A0008C250A16103003176002031D432C0313F6
:1028B0000830FD00A8018B1BA8178B138316031784
:1028C000A9013730A8000130AB003F30AA00083022
:1028D000AC000A1283120313D8220A16A81B8B1706
:1028E000F808031DA12DD9080319E62C0317E301ED
:1028F0003F30E2000A128A15031318220A168A11C1
:102900007A08F5007908F4007808F3007708F200F7
:102910000A1286250A1680300317E2000A120313F2
:102920006A250A160317E00160080A120313FE2045
:102930000A160317E00AF700831690000A128312A2
:1029400003138C250A160F3003176002031D942C05
:10295000C030E2000A1203136A250A160317E001C9
:1029600060080A12031312210A160317E00AF7007F
:10297000831690000A12831203138C250A160B305B
:1029800003176002031DB02C893084007508E6002F
:102990007408E5007308E4007208E3000230E70001
:1029A0000A128A150313DF230A168A11043003174B
:1029B000E1002030831690000A12831203138C2545
:1029C0000A160317E10BD92C9E2D03130A300C1E97
:1029D000E72C99000D300C1EEB2C99000317E00139
:1029E00060080A12031370200A160317E00AF700A2
:1029F00003130C1EF92C99000C3003176002031D01
:102A0000F02C103084008317003000040319102DBF
:102A1000000803130C1E0A2D9900840A0317042DC5
:102A2000223003130C1E122D99000A300C1E162D95
:102A300099000D300C1E1A2D99000317E001600853
:102A40000A12031384200A160317E00AF70003137F
:102A50000C1E282D99000B3003176002031D1F2D3B
:102A6000E00160080A12031324210A160317E00A82
:102A7000F70003130C1E3A2D99001E300317600255
:102A8000031D312DE00160080A12031394200A1679
:102A90000317E00AF70003130C1E4C2D99003F307A
:102AA00003176002031D432D031335080C1E562D1A
:102AB0009900C8308316031791000A12831203137A
:102AC00056250A160A1286250A1680300317E200D8
:102AD0000A1203136A250A160317E00160080A1296
:102AE000031347210A160317E00AF7008316900024
:102AF0000A12831203138C250A160F300317600283
:102B0000031D6E2DC030E2000A1203136A250A1657
:102B10000317E00160080A120313E9200A160317DD
:102B2000E00AF700831690000A12831203138C2523
:102B30000A16103003176002031D8A2D0830FD00AD
:102B400003130317E1013730E0000130E300513097
:102B5000E2000A12031372260A16F808031DB22DAA
:102B6000071407160317E1013730E0000130E300D6
:102B70005830E2000A12031372260A16F808031DE1
:102B8000C32D07100712C42D8A150A16D32D061857
:102B9000D52D0317E0010130E1000A128A15031355
:102BA000F7240A168A11061CD32D8618E22D01304F
:102BB0000317E0000A128A15031309260A168A1160
:102BC000861CE02D06196D2EB1080319E92D003081
:102BD000EA2D0130B1000A1286250A16803003174B
:102BE000E2000A1203136A250A160317E0016008BF
:102BF0000A1203133E200A160317E00AF700831691
:102C000090000A12831203138C250A160B30031747
:102C10006002031DF72DC030E2000A1203136A257B
:102C20000A163A308316031790000A128312031310
:102C30008C250A1631080317E0001B30E1006008FC
:102C4000E7006430E8000A120313E6250A16770845
:102C50000317E00078083030031D352EE11C422EAA
:102C6000E119422E611A2030382EE11161126114EF
:102C7000F8077808831690000A12831203138C2534
:102C80000A1603176008E7000A30E8000A12031367
:102C9000E6250A1677080317E00078083030031D90
:102CA000572EE119612E611C612E611A2030F80740
:102CB0007808831690000A12831203138C250A16D3
:102CC00003173030E0076008831690000A12831261
:102CD00003138C250A16061D6B2E8619AC2ED908F7
:102CE0000319AA2E83106108831603179B00831211
:102CF00003136008831603179A00831203135F08F7
:102D0000831603179900831203135E0883160317B3
:102D100098009F019E0120309D0081309C000A1286
:102D20008A158312031300200A168A1177080317E5
:102D3000E0007808E1007908E2007A08E300E900A1
:102D40006208E8006108E7006008E6000A12031361
:102D500053270A16861DAA2E061AEB2ED908031928
:102D6000E92E83146108831603179B008312031353
:102D70006008831603179A00831203135F088316F3
:102D800003179900831203135E0883160317980034
:102D90009F019E0120309D0081309C000A128A15FF
:102DA0008312031300200A168A1177080317E00024
:102DB0007808E1007908E2007A08E300E900620897
:102DC000E8006108E7006008E6000A1203135327D1
:0C2DD0000A16061EE92E8A150A16D72DD9
:10300000D9080319152C1030F8001F08C7397804A7
:103010009F000D30F700F70B0B28F601E901E801DE
:10302000E701E6017608093C031C60291F151F19FA
:1030300017281E08FA0083161E08031794007A0842
:1030400095000A128A118312031332270A168A1571
:103050007A08DD007908DC007808DB007708DA0000
:103060005D08831603179300831203135C0883160D
:1030700003179200831203135B0883160317910052
:10308000831203135A0883160317900097019601C1
:1030900020309500813094000A128A1183120313A4
:1030A000B9260A168A157A08DD007908DC00780846
:1030B000DB007708DA005D0883160317940083129B
:1030C00003135C08831603179300831203135B0832
:1030D000831603179200831203135A0883160317EB
:1030E00091009801C03097007F309600883095009D
:1030F0000A12831203134A210A167A08DD0079089E
:10310000DC007808DB007708DA00B108031D0F291E
:10311000831603179301920134309100853090009B
:10312000831203135D08831603179700831203139A
:103130005C08831603179600831203135B0883163B
:1031400003179500831203135A088316031794007C
:103150000A128A1183120313B9260A168A157A08ED
:10316000E9007908E8007808E7007708E6008314AA
:103170006908831603179B008312031368088316DC
:1031800003179A0083120313670883160317990025
:10319000831203136608831603179800AE309F004E
:1031A000C7309E001C309D0085309C000A1283129F
:1031B000031300200A167A08E9007908E800780865
:1031C000E7007708E6006908831603179400831266
:1031D0000313680883160317930083120313670809
:1031E00083160317920083120313660883160317CE
:1031F0009100D13098002230970043309600803003
:1032000095000A12831203134A210A167A08E9006C
:103210007908E8007808E7007708E6005E295D088D
:10322000831603179300831203135C088316031796
:103230009200831203135B08831603179100831215
:1032400003135A0883160317900097019601203044
:103250009500823094000A128A1183120313B92652
:103260000A168A1583106908831603179B008312B8
:1032700003136808831603179A0083120313670861
:103280008316031799008312031366088316031726
:1032900098007A089F0079089E0078089D007708BA
:1032A0009C000A128312031300200A167A08E90010
:1032B0007908E8007808E7007708E600F60A12289F
:1032C000FD08031DE0290A128A1186250A168A15AF
:1032D00080300317E2000A128A1103136A250A16C6
:1032E0008A150317E00160080A128A110313672187
:1032F0000A168A150317E00AF700831690000A12CF
:103300008A11831203138C250A168A1506300317B7
:103310006002031D732989308400031369080317B1
:10332000E600031368080317E50003136708031793
:10333000E400031366080317E3000230E7000A12F3
:103340000313DF230A16C0300317E2000A128A11A2
:1033500003136A250A168A150317E00160080A128A
:103360008A1103138D220A168A150317E00AF70043
:10337000831690000A128A11831203138C250A16F1
:103380008A150A3003176002031DAE2989308400B4
:10339000031361080317E600031360080317E50031
:1033A00003135F080317E40003135E080317E30029
:1033B0000230E7000A120313DF230A160830FD006B
:1033C00083106108831603179B00831203136008A0
:1033D000831603179A00831203135F0883160317DB
:1033E0009900831203135E08831603179800831253
:1033F00003136508831603179F00831203136408E1
:10340000831603179E0083120313630883160317A2
:103410009D00831203136208831603179C000A128F
:103420008312031300200A167A080317E7007908AD
:10343000E6007808E5007708E4000313690803173D
:10344000EB00031368080317EA0003136708031768
:10345000E900031366080317E8000A128A11031330
:1034600064270A168A15031C382B831061088316FB
:1034700003179B00831203136008831603179A0037
:10348000831203135F088316031799008312031333
:103490005E088316031798008312031365088316CA
:1034A00003179F00831203136408831603179E00FB
:1034B000831203136308831603179D0083120313FB
:1034C0006208831603179C000A128312031300205C
:1034D0000A1677080317E0007808E1007908E2008F
:1034E0007A08E3008310630883169B008312620846
:1034F00083169A008312610883169900831260086C
:10350000831698009F019E0110309D0081309C0021
:103510000A128312031300200A167A080317E70021
:103520007908E6007808E5007708E40003136908E5
:103530000317EB00031368080317EA000313670877
:103540000317E900031366080317E8000A128A113B
:10355000031364270A168A15031C322B8310610893
:10356000831603179B008312031360088316031747
:103570009A00831203135F088316031799008312BE
:1035800003135E088316031798008312031365085C
:10359000831603179F00831203136408831603170F
:1035A0009E00831203136308831603179D00831282
:1035B00003136208831603179C000A128312031375
:1035C00000200A1677080317E0007808E100790860
:1035D000E2007A08E3008310630883169B008312DD
:1035E000620883169A008312610883169900831279
:1035F00060088316980075089F0074089E00730881
:103600009D0072089C000A128312031300200A1600
:103610007A080317E7007908E6007808E5007708DC
:10362000E400031369080317EB000313680803178A
:10363000EA00031367080317E9000313660803177A
:10364000E8000A128A11031364270A168A15031C5C
:103650002C2B871486162E2B871086127B30950014
:103660008617352B50309500861787120613142CB9
:1036700083146108831603179B00831203136008E9
:10368000831603179A00831203135F088316031728
:103690009900831203135E088316031798008312A0
:1036A00003136508831603179F008312031364082E
:1036B000831603179E0083120313630883160317F0
:1036C0009D00831203136208831603179C000A12DD
:1036D0008312031300200A1669080317E700031377
:1036E00068080317E600031367080317E5000313D0
:1036F00066080317E4007A08EB007908EA00780806
:10370000E9007708E8000A128A11031364270A16F1
:103710008A15031C0E2C83146108831603179B0063
:10372000831203136008831603179A00831203138E
:103730005F08831603179900831203135E0883162C
:1037400003179800831203136508831603179F005D
:10375000831203136408831603179E008312031356
:103760006308831603179D008312031362088316F0
:1037700003179C000A128312031300200A1677080D
:103780000317E0007808E1007908E2007A08E30016
:103790008314630883169B008312620883169A00C1
:1037A00083126108831699008312600883169800BB
:1037B00075089F0074089E0073089D0072089C00A5
:1037C0000A128312031300200A1669080317E70080
:1037D000031368080317E600031367080317E500DF
:1037E000031366080317E4007A08EB007908EA007F
:1037F0007808E9007708E8000A128A1103136427A1
:103800000A168A15031C072C87148616092C8710A4
:1038100086128716061795018613142C95018613B8
:1038200087120613871086121B2C871086128712A8
:103830000613950186138A150A16D52D8401831364
:103840001F3083050C3083169900A2309800903009
:103850008312980083161F149F141F159F110730A1
:103860009C008312A901AA01AF01B101B201B40108
:10387000B601C7014F30C8004B30C900CA012B3018
:10388000CB004330CC004D30CD005430CE00493019
:10389000CF00D0012B30D1004330D2004D30D300C7
:1038A0004730D4005230D500D601D701D801D90114
:1038B000DE01DF01E001E1017E30E200E301E4012D
:1038C000E501E601E701E801E9018330EA0048305B
:1038D000EB00EC01ED01363003179000323091001F
:1038E00039309200363093003830940039309500EA
:1038F000960097009800313099009A0181300313A7
:10390000EE002030EF00F001F1018430F2001E30B3
:10391000F300F401F501F601FC01703003179B0080
:103920006C309C0061309D006E309E0074309F00B2
:103930006130A0006F30A1006E30A200A301703092
:10394000A4006F30A5006E30A6007330A70074305D
:10395000A8007030A9003A30AA002030AB00AC01BA
:103960007030AD006C30AE006130AF006E30B00032
:103970007430B1006130B2006F30B3006630B40013
:10398000B500B6017430B7006530B8006D30B900CD
:103990007030BA007230BB006530BC006330BD00CF
:1039A000BE017430BF006D30C0007030C100773090
:1039B000C2007230C3006E30C4003A30C5002030FF
:1039C000C600C7017430C8006D30C9007030CA002D
:1039D0006730CB006130CC007030CD003A30CE0083
:1039E0002030CF00D0017230D1006530D2006C3071
:1039F000D3006530D4006F30D5006E30D600D701CB
:103A00007230D8006530D9006C30DA006530DB00E8
:103A10006F30DC006630DD00DE00DF01FD01FF30CD
:103A2000FE003F308316031385001F308600803070
:103A30008700FE00003088000910891009118312E8
:103A4000850186018701880189011A30B5000A12B3
:103A50008A11792D0A168A150A128A1186250A16E4
:103A60008A1580300317E2000A128A1103136A25AF
:103A70000A168A150317E00160080A128A11031357
:103A80009E220A168A150317E00AF7008316900093
:103A90000A128A11831203138C250A168A150E3016
:103AA00003176002031D3C2DC030E2000A128A1188
:103AB00003136A250A168A150317E00160080A1223
:103AC0008A110313B1220A168A150317E00AF700B8
:103AD000831690000A128A11831203138C250A168A
:103AE0008A150F3003176002031D5E2DE001600888
:103AF0000A128A110313C5220A168A150317E00A4F
:103B0000F70003130C1E822D990006300317600284
:103B1000031D772DE00160080A128A1103137D222C
:103B20000A168A150317E00AF70003130C1E962DD8
:103B300099000B3003176002031D8B2DC030031357
:103B40008B0483168C160C140A128A1183129D2D75
:103B50000A168A1583161F149F101F119F151F1315
:103B600083121F139F1783169F1783121F14B530DC
:103B7000900003308F0053308E000030F80006387C
:103B800092007C30831692007E117E08870083129B
:103B900007110C30970095018613871206138710C2
:103BA00086128A1100288A1500288A11C72D8A15C5
:043BB000D12D6300B0
:02400E007A39FD
:00000001FF
;PIC16F877A
